{
  "contractName": "Paiement",
  "abi": [
    {
      "inputs": [],
      "stateMutability": "nonpayable",
      "type": "constructor"
    },
    {
      "anonymous": false,
      "inputs": [
        {
          "indexed": false,
          "internalType": "uint256",
          "name": "id",
          "type": "uint256"
        },
        {
          "indexed": false,
          "internalType": "string",
          "name": "nomProduit",
          "type": "string"
        },
        {
          "indexed": false,
          "internalType": "uint256",
          "name": "prix",
          "type": "uint256"
        },
        {
          "indexed": false,
          "internalType": "address payable",
          "name": "proprietaire",
          "type": "address"
        },
        {
          "indexed": false,
          "internalType": "bool",
          "name": "achete",
          "type": "bool"
        },
        {
          "indexed": false,
          "internalType": "string",
          "name": "imageIPFSHash",
          "type": "string"
        }
      ],
      "name": "Produitachete",
      "type": "event"
    },
    {
      "anonymous": false,
      "inputs": [
        {
          "indexed": false,
          "internalType": "uint256",
          "name": "id",
          "type": "uint256"
        },
        {
          "indexed": false,
          "internalType": "string",
          "name": "nomProduit",
          "type": "string"
        },
        {
          "indexed": false,
          "internalType": "uint256",
          "name": "prix",
          "type": "uint256"
        },
        {
          "indexed": false,
          "internalType": "address payable",
          "name": "proprietaire",
          "type": "address"
        },
        {
          "indexed": false,
          "internalType": "bool",
          "name": "achete",
          "type": "bool"
        },
        {
          "indexed": false,
          "internalType": "string",
          "name": "imageIPFSHash",
          "type": "string"
        }
      ],
      "name": "Produitcree",
      "type": "event"
    },
    {
      "inputs": [
        {
          "internalType": "uint256",
          "name": "",
          "type": "uint256"
        }
      ],
      "name": "Produits",
      "outputs": [
        {
          "internalType": "uint256",
          "name": "id",
          "type": "uint256"
        },
        {
          "internalType": "string",
          "name": "nomProduit",
          "type": "string"
        },
        {
          "internalType": "uint256",
          "name": "prix",
          "type": "uint256"
        },
        {
          "internalType": "address payable",
          "name": "proprietaire",
          "type": "address"
        },
        {
          "internalType": "bool",
          "name": "achete",
          "type": "bool"
        },
        {
          "internalType": "string",
          "name": "imageIPFSHash",
          "type": "string"
        }
      ],
      "stateMutability": "view",
      "type": "function",
      "constant": true
    },
    {
      "inputs": [],
      "name": "count",
      "outputs": [
        {
          "internalType": "uint256",
          "name": "",
          "type": "uint256"
        }
      ],
      "stateMutability": "view",
      "type": "function",
      "constant": true
    },
    {
      "inputs": [],
      "name": "nom",
      "outputs": [
        {
          "internalType": "string",
          "name": "",
          "type": "string"
        }
      ],
      "stateMutability": "view",
      "type": "function",
      "constant": true
    },
    {
      "inputs": [
        {
          "internalType": "string",
          "name": "_nom",
          "type": "string"
        },
        {
          "internalType": "uint256",
          "name": "_prix",
          "type": "uint256"
        },
        {
          "internalType": "string",
          "name": "_imageIPFSHash",
          "type": "string"
        }
      ],
      "name": "nouveauProduit",
      "outputs": [],
      "stateMutability": "nonpayable",
      "type": "function"
    },
    {
      "inputs": [
        {
          "internalType": "uint256",
          "name": "_id",
          "type": "uint256"
        }
      ],
      "name": "acheteProduit",
      "outputs": [],
      "stateMutability": "payable",
      "type": "function",
      "payable": true
    },
    {
      "inputs": [
        {
          "internalType": "uint256",
          "name": "_id",
          "type": "uint256"
        },
        {
          "internalType": "string",
          "name": "_nouvelleImageIPFSHash",
          "type": "string"
        }
      ],
      "name": "mettreAJourImageProduit",
      "outputs": [],
      "stateMutability": "nonpayable",
      "type": "function"
    }
  ],
  "bytecode": "0x608060405260006001553480156200001657600080fd5b506040518060400160405280600681526020017f4553504f5254000000000000000000000000000000000000000000000000000081525060009080519060200190620000649291906200006b565b5062000180565b82805462000079906200011b565b90600052602060002090601f0160209004810192826200009d5760008555620000e9565b82601f10620000b857805160ff1916838001178555620000e9565b82800160010185558215620000e9579182015b82811115620000e8578251825591602001919060010190620000cb565b5b509050620000f89190620000fc565b5090565b5b8082111562000117576000816000905550600101620000fd565b5090565b600060028204905060018216806200013457607f821691505b602082108114156200014b576200014a62000151565b5b50919050565b7f4e487b7100000000000000000000000000000000000000000000000000000000600052602260045260246000fd5b61102c80620001906000396000f3fe6080604052600436106100555760003560e01c806306661abd1461005a5780633a623d42146100855780636454e96a146100ae578063724d4bcc146100d7578063cceae561146100f3578063f67ed8ce1461011e575b600080fd5b34801561006657600080fd5b5061006f610160565b60405161007c9190610cb1565b60405180910390f35b34801561009157600080fd5b506100ac60048036038101906100a79190610b55565b610166565b005b3480156100ba57600080fd5b506100d560048036038101906100d09190610aad565b6102bd565b005b6100f160048036038101906100ec9190610b2c565b61044e565b005b3480156100ff57600080fd5b506101086106f9565b6040516101159190610c8f565b60405180910390f35b34801561012a57600080fd5b5061014560048036038101906101409190610b2c565b610787565b60405161015796959493929190610ccc565b60405180910390f35b60015481565b6000600260008481526020019081526020016000209050600081600001541180156101975750600154816000015411155b6101a057600080fd5b818160040190805190602001906101b8929190610900565b5080600260008581526020019081526020016000206000820154816000015560018201816001019080546101eb90610ec6565b6101f6929190610986565b50600282015481600201556003820160009054906101000a900473ffffffffffffffffffffffffffffffffffffffff168160030160006101000a81548173ffffffffffffffffffffffffffffffffffffffff021916908373ffffffffffffffffffffffffffffffffffffffff1602179055506003820160149054906101000a900460ff168160030160146101000a81548160ff02191690831515021790555060048201816004019080546102a990610ec6565b6102b4929190610986565b50905050505050565b60008351116102cb57600080fd5b600082116102d857600080fd5b600160008154809291906102eb90610ef8565b91905055506040518060c0016040528060015481526020018481526020018381526020013373ffffffffffffffffffffffffffffffffffffffff16815260200160001515815260200182815250600260006001548152602001908152602001600020600082015181600001556020820151816001019080519060200190610373929190610900565b506040820151816002015560608201518160030160006101000a81548173ffffffffffffffffffffffffffffffffffffffff021916908373ffffffffffffffffffffffffffffffffffffffff16021790555060808201518160030160146101000a81548160ff02191690831515021790555060a0820151816004019080519060200190610401929190610900565b509050507ff346ab883345448a0043cdc21f3678f02f3bb49671d18836aad92e5edcdc3dc760015484843360008660405161044196959493929190610ccc565b60405180910390a1505050565b600060026000838152602001908152602001600020905060008160030160009054906101000a900473ffffffffffffffffffffffffffffffffffffffff169050600082600001541180156104a85750600154826000015411155b6104b157600080fd5b81600201543410156104c257600080fd5b8160030160149054906101000a900460ff16156104de57600080fd5b338260030160006101000a81548173ffffffffffffffffffffffffffffffffffffffff021916908373ffffffffffffffffffffffffffffffffffffffff16021790555060018260030160146101000a81548160ff021916908315150217905550816002600085815260200190815260200160002060008201548160000155600182018160010190805461057090610ec6565b61057b929190610986565b50600282015481600201556003820160009054906101000a900473ffffffffffffffffffffffffffffffffffffffff168160030160006101000a81548173ffffffffffffffffffffffffffffffffffffffff021916908373ffffffffffffffffffffffffffffffffffffffff1602179055506003820160149054906101000a900460ff168160030160146101000a81548160ff021916908315150217905550600482018160040190805461062e90610ec6565b610639929190610986565b509050508073ffffffffffffffffffffffffffffffffffffffff166108fc349081150290604051600060405180830381858888f19350505050158015610683573d6000803e3d6000fd5b507f1cd303e3921c352c1013eae83906899ec73f9905edc7b9c7cd999555297ad56b838360010184600201548560030160009054906101000a900473ffffffffffffffffffffffffffffffffffffffff166001876004016040516106ec96959493929190610d3b565b60405180910390a1505050565b6000805461070690610ec6565b80601f016020809104026020016040519081016040528092919081815260200182805461073290610ec6565b801561077f5780601f106107545761010080835404028352916020019161077f565b820191906000526020600020905b81548152906001019060200180831161076257829003601f168201915b505050505081565b60026020528060005260406000206000915090508060000154908060010180546107b090610ec6565b80601f01602080910402602001604051908101604052809291908181526020018280546107dc90610ec6565b80156108295780601f106107fe57610100808354040283529160200191610829565b820191906000526020600020905b81548152906001019060200180831161080c57829003601f168201915b5050505050908060020154908060030160009054906101000a900473ffffffffffffffffffffffffffffffffffffffff16908060030160149054906101000a900460ff169080600401805461087d90610ec6565b80601f01602080910402602001604051908101604052809291908181526020018280546108a990610ec6565b80156108f65780601f106108cb576101008083540402835291602001916108f6565b820191906000526020600020905b8154815290600101906020018083116108d957829003601f168201915b5050505050905086565b82805461090c90610ec6565b90600052602060002090601f01602090048101928261092e5760008555610975565b82601f1061094757805160ff1916838001178555610975565b82800160010185558215610975579182015b82811115610974578251825591602001919060010190610959565b5b5090506109829190610a13565b5090565b82805461099290610ec6565b90600052602060002090601f0160209004810192826109b45760008555610a02565b82601f106109c55780548555610a02565b82800160010185558215610a0257600052602060002091601f016020900482015b82811115610a015782548255916001019190600101906109e6565b5b509050610a0f9190610a13565b5090565b5b80821115610a2c576000816000905550600101610a14565b5090565b6000610a43610a3e84610ddb565b610daa565b905082815260208101848484011115610a5b57600080fd5b610a66848285610e84565b509392505050565b600082601f830112610a7f57600080fd5b8135610a8f848260208601610a30565b91505092915050565b600081359050610aa781610fdf565b92915050565b600080600060608486031215610ac257600080fd5b600084013567ffffffffffffffff811115610adc57600080fd5b610ae886828701610a6e565b9350506020610af986828701610a98565b925050604084013567ffffffffffffffff811115610b1657600080fd5b610b2286828701610a6e565b9150509250925092565b600060208284031215610b3e57600080fd5b6000610b4c84828501610a98565b91505092915050565b60008060408385031215610b6857600080fd5b6000610b7685828601610a98565b925050602083013567ffffffffffffffff811115610b9357600080fd5b610b9f85828601610a6e565b9150509250929050565b610bb281610e3c565b82525050565b610bc181610e4e565b82525050565b6000610bd282610e20565b610bdc8185610e2b565b9350610bec818560208601610e93565b610bf581610fce565b840191505092915050565b60008154610c0d81610ec6565b610c178186610e2b565b94506001821660008114610c325760018114610c4457610c77565b60ff1983168652602086019350610c77565b610c4d85610e0b565b60005b83811015610c6f57815481890152600182019150602081019050610c50565b808801955050505b50505092915050565b610c8981610e7a565b82525050565b60006020820190508181036000830152610ca98184610bc7565b905092915050565b6000602082019050610cc66000830184610c80565b92915050565b600060c082019050610ce16000830189610c80565b8181036020830152610cf38188610bc7565b9050610d026040830187610c80565b610d0f6060830186610ba9565b610d1c6080830185610bb8565b81810360a0830152610d2e8184610bc7565b9050979650505050505050565b600060c082019050610d506000830189610c80565b8181036020830152610d628188610c00565b9050610d716040830187610c80565b610d7e6060830186610ba9565b610d8b6080830185610bb8565b81810360a0830152610d9d8184610c00565b9050979650505050505050565b6000604051905081810181811067ffffffffffffffff82111715610dd157610dd0610f9f565b5b8060405250919050565b600067ffffffffffffffff821115610df657610df5610f9f565b5b601f19601f8301169050602081019050919050565b60008190508160005260206000209050919050565b600081519050919050565b600082825260208201905092915050565b6000610e4782610e5a565b9050919050565b60008115159050919050565b600073ffffffffffffffffffffffffffffffffffffffff82169050919050565b6000819050919050565b82818337600083830152505050565b60005b83811015610eb1578082015181840152602081019050610e96565b83811115610ec0576000848401525b50505050565b60006002820490506001821680610ede57607f821691505b60208210811415610ef257610ef1610f70565b5b50919050565b6000610f0382610e7a565b91507fffffffffffffffffffffffffffffffffffffffffffffffffffffffffffffffff821415610f3657610f35610f41565b5b600182019050919050565b7f4e487b7100000000000000000000000000000000000000000000000000000000600052601160045260246000fd5b7f4e487b7100000000000000000000000000000000000000000000000000000000600052602260045260246000fd5b7f4e487b7100000000000000000000000000000000000000000000000000000000600052604160045260246000fd5b6000601f19601f8301169050919050565b610fe881610e7a565b8114610ff357600080fd5b5056fea26469706673582212202d6ca6ad5750211146d82ba1ac53b87968ea4d351c191ec1351ca21d7a5a447864736f6c63430008000033",
  "immutableReferences": {},
  "source": "// SPDX-License-Identifier: MIT\r\npragma solidity ^0.8.0;\r\n\r\ncontract Paiement {\r\n    string public nom;\r\n    uint public count = 0;\r\n    mapping(uint => Produit) public Produits;\r\n\r\n    struct Produit {\r\n        uint id;\r\n        string nomProduit; // Correct variable name\r\n        uint prix;\r\n        address payable proprietaire;\r\n        bool achete;\r\n        string imageIPFSHash; // Hachage IPFS de l'image\r\n    }\r\n\r\n    event Produitcree(\r\n        uint id,\r\n        string nomProduit,\r\n        uint prix,\r\n        address payable proprietaire,\r\n        bool achete,\r\n        string imageIPFSHash\r\n    );\r\n\r\n    event Produitachete(\r\n        uint id,\r\n        string nomProduit,\r\n        uint prix,\r\n        address payable proprietaire,\r\n        bool achete,\r\n        string imageIPFSHash\r\n    );\r\n\r\n    constructor(){\r\n        nom = \"ESPORT\";\r\n    }\r\n\r\n    function nouveauProduit(string memory _nom, uint _prix, string memory _imageIPFSHash) public {\r\n        // Require a valid nom\r\n        require(bytes(_nom).length > 0);\r\n        // Require a valid prix\r\n        require(_prix > 0);\r\n        // Increment Produit count\r\n        count ++;\r\n        // Nouveau Produit\r\n        Produits[count] = Produit(count, _nom, _prix, payable(msg.sender), false, _imageIPFSHash);\r\n        // Trigger an event\r\n        emit Produitcree(count, _nom, _prix, payable(msg.sender), false, _imageIPFSHash);\r\n    }\r\n\r\n    function acheteProduit(uint _id) public payable {\r\n        // Fetch the Produit\r\n        Produit storage _Produit = Produits[_id];\r\n        // Fetch the proprietaire\r\n        address payable _vendeur = _Produit.proprietaire;\r\n        // Make sure the Produit has a valid id\r\n        require(_Produit.id > 0 && _Produit.id <= count);\r\n        // Require that there is enough Ether in the transaction\r\n        require(msg.value >= _Produit.prix);\r\n        // Require that the Produit has not been achete already\r\n        require(!_Produit.achete);\r\n        // Transfer proprietaireship to the buyer\r\n        _Produit.proprietaire = payable(msg.sender);\r\n        // Mark as achete\r\n        _Produit.achete = true;\r\n        // Update the Produit\r\n        Produits[_id] = _Produit;\r\n        // Pay the vendeur by sending them Ether\r\n        _vendeur.transfer(msg.value);\r\n        // Trigger an event\r\n        emit Produitachete(_id, _Produit.nomProduit, _Produit.prix, _Produit.proprietaire, true, _Produit.imageIPFSHash);\r\n    }\r\n\r\n    function mettreAJourImageProduit(uint _id, string memory _nouvelleImageIPFSHash) public {\r\n        // Fetch the Produit\r\n        Produit storage _Produit = Produits[_id];\r\n        // Make sure the Produit exists\r\n        require(_Produit.id > 0 && _Produit.id <= count);\r\n        // Update the image IPFS hash\r\n        _Produit.imageIPFSHash = _nouvelleImageIPFSHash;\r\n        // Update the Produit\r\n        Produits[_id] = _Produit;\r\n    }\r\n}\r\n",
  "sourcePath": "C:\\Users\\julis\\Desktop\\app-final\\contracts\\Paiement.sol",
  "compiler": {
    "name": "solc",
    "version": "0.8.0+commit.c7dfd78e.Emscripten.clang"
  },
  "schemaVersion": "3.4.14",
  "updatedAt": "2023-08-21T16:11:59.691Z",
  "networkType": "ethereum",
  "devdoc": {
    "kind": "dev",
    "methods": {},
    "version": 1
  },
  "userdoc": {
    "kind": "user",
    "methods": {},
    "version": 1
  }
}